:030000000204FAFD
:0F000B0002064DD2A07F0500AE071FEE70F9224E
:10001B000206FB75089978097C007D007BFF7A0945
:10002B0079137E007F0712032778107C007D007BFD
:10003B00FF7A09791A7E007F07120327E4F517125E
:10004B0008B69008F2E493FF7D0112080E12089493
:10005B001208A5D2AFC2A9C2ABE4FF120782EF64AC
:10006B007D60317D7DE4FF1207F1AD0A7F01120740
:10007B00F1AD0B7F021207F1AD0C7F031207F1AD4F
:10008B000D7F041207F1AD0E7F051207F1AD0F7F47
:10009B00060202177F011207828F0A7F0212078264
:1000AB008F0B7F031207828F0C7F041207828F0D39
:1000BB007F051207828F0E7F061207828F0F1205A4
:1000CB00868F08E52224FE602F1470030201B714FB
:1000DB0070030201DC240370E5E5A0541F44C0F556
:1000EB00A0E4F58053A01FE508644170D17522028E
:1000FB00F5179008F902018C7B007A007910AD1787
:10010B001203A0AF087E00D3E49F7480F898507B55
:10011B00EF9409748094805072E5176406609F0514
:10012B001774102517F8A608E51764067090F518D4
:10013B00751901F51AF518751901AF1974092FF80E
:10014B00E6FE74102FF8E6B50610051A0519E51929
:10015B00700205186407451870E0E51A6406701BF9
:10016B007F011208599008F9E493FF7D0112080EE4
:10017B00E4F523D2AB7522030200C9D2A99008F390
:10018B00E493FFE4FD12080E0200C9E50864216048
:10019B00030200C99008F393FF7D0112080EC2A958
:1001AB00E4F521E517607A15170200C91207D2E5AD
:1001BB0008643160030200C9C2ABF517FF1208597E
:1001CB009008FAE493FFE4FD12080E752204020076
:1001DB00C97B007A007909AD1712044DAF087E0078
:1001EB00D3E49F7480F8985029EF9409748094801D
:1001FB005020E51764066004051780007409251765
:10020B00F8A60874092517F8E6FDAF171207F102D7
:10021B0000C9E50864217012E51760051517020087
:10022B00C9E4FDFF1206290200C9E5086431600329
:10023B000200C9E517640660030200C9752201902C
:10024B0008FA93FF7D0112080E0200C9E709F608B0
:10025B00DFFA8046E709F208DFFA803E88828C835A
:10026B00E709F0A3DFFA8032E309F608DFFA8078BA
:10027B00E309F208DFFA807088828C83E309F0A32C
:10028B00DFFA806489828A83E0A3F608DFFA80585C
:10029B0089828A83E0A3F208DFFA804C80D280FA4D
:1002AB0080C680D4806980F28033801080A680EA7B
:1002BB00809A80A880DA80E280CA803389828A8320
:1002CB00ECFAE493A3C8C582C8CCC583CCF0A3C811
:1002DB00C582C8CCC583CCDFE9DEE7800D89828A75
:1002EB0083E493A3F608DFF9ECFAA9F0EDFB22897E
:1002FB00828A83ECFAE0A3C8C582C8CCC583CCF054
:10030B00A3C8C582C8CCC583CCDFEADEE880DB8915
:10031B00828A83E493A3F208DFF980CC88F0EF6044
:10032B00010E4E60C388F0ED2402B4040050B9F501
:10033B0082EB2402B4040050AF23234582239002A6
:10034B00A773BB010CE58229F582E5833AF583E0BF
:10035B00225006E92582F8E622BBFE06E92582F843
:10036B00E222E58229F582E5833AF583E49322D0F4
:10037B0083D082F8E4937012740193700DA3A3934E
:10038B00F8740193F5828883E4737402936860EFC9
:10039B00A3A3A380DFAC057D0A7F01120629EC2401
:1003AB00FE601B1460231460371460571470030233
:1003BB00043D2405600302044C900001807A9000F8
:1003CB0001120623900002806F90000112034DFD75
:1003DB007F06120629900002120623900003805814
:1003EB0090000112034DFD7F0512062990000212A9
:1003FB00034DFD7F06120629900003120623900081
:10040B0004803590000112034DFD7F0412062990E4
:10041B00000212034DFD7F05120629900003120303
:10042B004DFD7F061206299000041206239000054D
:10043B0080061205F090000612034DFD7F08120690
:10044B002922AC057D0E7F01120629EC24FE601BD0
:10045B001460231460371460571470030204EA24E9
:10046B000560030204F9900001807A9000011206E6
:10047B0023900002806F90000112034DFD7F061246
:10048B000629900002120623900003805890000169
:10049B0012034DFD7F0512062990000212034DFD3C
:1004AB007F06120629900003120623900004803564
:1004BB0090000112034DFD7F0412062990000212D9
:1004CB00034DFD7F0512062990000312034DFD7F9E
:1004DB0006120629900004120623900005800612CE
:1004EB0005F090000612034DFD7F081206292278B5
:1004FB007FE4F6D8FD75812302054102001EE493CB
:10050B00A3F8E493A34003F68001F208DFF48029FB
:10051B00E493A3F85407240CC8C333C4540F4420EA
:10052B00C8834004F456800146F6DFE4800B0102D9
:10053B00040810204080900881E47E019360BCA3E6
:10054B00FF543F30E509541FFEE493A360010ECF27
:10055B0054C025E060A840B8E493A3FAE493A3F851
:10056B00E493A3C8C582C8CAC583CAF0A3C8C58211
:10057B00C8CAC583CADFE9DEE780BE7F9912086D62
:10058B00EF12037A05ED1105C61205C91305CC143C
:10059B0005CF2105D22205D52305D82405DB31054E
:1005AB00ED3205DE3305E13405E44105ED4205E7A7
:1005BB004305EA4405ED99000005ED7F08227F0411
:1005CB00227F00227F21227F09227F05227F0122A9
:1005DB007F31227F06227F02227F41227F07227FEB
:1005EB0003227F992290000112034DFD7F03120617
:1005FB002990000212034DFD7F041206299000037F
:10060B0012034DFD7F0512062990000412034DFDC8
:10061B007F0612062990000512034DFD7F07E5A00A
:10062B00541F44C0F5A0EF9008FB93F580E5A05450
:10063B001F44E0F5A0ED90090493F58053A01F0231
:10064B0008E0C0E0C0F0C083C082C0D075D000C04D
:10065B0000C001C002C003C004C005C006C007052E
:10066B0021C3E5219464748094804013C2A9752141
:10067B00009008F3E493FF7D0112080E752201D060
:10068B0007D006D005D004D003D002D001D000D0C3
:10069B00D0D082D083D0F0D0E03253B0F0D2B4D2ED
:1006AB00B5D2C2D2C420B4047D04801820B5047D19
:1006BB0003801120C2047D02800A20C4047D0180C6
:1006CB00037F992243B00FC2B4C2B5C2C2C2C420C9
:1006DB00B0047E04801320B1047E03800C20B2048E
:1006EB007E02800520B3027E01EDC454F02EFF2262
:1006FB00C0E0C0F0C083C082C0D075D000C000C0C5
:10070B0001C002C003C004C005C006C0070523C357
:10071B00E523946474809480400DC2AB752300E490
:10072B00FF120859752201D007D006D005D004D08E
:10073B0003D002D001D000D0D0D082D083D0F0D063
:10074B00E032AD07E4FCECC3940874809480502431
:10075B00C2A07F05120012ED30E704D2A18002C2C5
:10076B00A17F05120012D2A0ED25E0FD7F0512003E
:10077B00120C80D2C2A022AB07E4FD120829AF03F2
:10078B0012074D1208311208C57FA112074D12082E
:10079B00311207ACAD07D2001208421208D4AF05D4
:1007AB0022E4FCECC3940874809480501712000E62
:1007BB00ED25E0FD30A103430501C2A07F0512002A
:1007CB00120C80DFAF0522E4FD7F011206297F05A5
:1007DB001206297D0B7F061206290D7F07120629AB
:1007EB000D7F08020629AB05AA07120829AF0212D2
:1007FB00074D120831AF0312074D1208311208D4FE
:10080B000208E9ED7005EF521B8004EFF4421BE583
:10081B00A0541F4480F5A0851B8053A01F221208F3
:10082B00C57FA012074D12000EA2A19200C2A07F9D
:10083B0005120012A20022C2A0A20092A17F0512F3
:10084B00001212000EC2A0D2A17F05020012E4F525
:10085B0080E5A0541F44A0F5A0EF24FF928453A081
:10086B001F221206A58F1DE51C651D6006851D1C2C
:10087B00AF1C227F9922011BFF011C99011D9901BD
:10088B00210001230001220100538E7F5389F0E4E4
:10089B00F58A758C4CC28DD28C22538EBF53890F27
:1008AB00E4F58B758D4CC28FD28E22E5A0541F447C
:1008BB00A0F5A0E4F58053A01F22D2A112000EC216
:1008CB00A17F05120012C2A022C2A112000ED2A15A
:1008DB007F050200127F067ED3DEFEDFFC227F3611
:1008EB007EC7DEFEDFFC22FFFEFDFBF7EFDFBF7FE7
:1008FB00000102040810204080C0F9A4B099928234
:10090B00F88090BF8C86C8C608080808080808003D
:06091B00000000000000D6
:00000001FF
