:030000000204BA3D
:0C04BA00787FE4F6D8FD7581230205016F
:0908A400012200012300012100E2
:1007D800E4FEEEC3940874809480500FC297EF1320
:0B07E80092A3EFC313FFD2970E80E72F
:0107F30022E3
:1008D000C29300C29700D293001207D8AF05120747
:0408E000D8C29322C5
:10062A00E4FDC29300C29700D293001207D8E4FFF8
:10063A00EFC39408748094805011C297EDC313FDE0
:10064A0030A303430580D2970F80E5C29300C29777
:0C065A0000D29700C2A300D2A300AF059D
:010666002271
:10054600AC07AA05E4FD7F8E1208D0EC75F00A848C
:10055600C454F0FFEC75F00A84E5F02FFD7F80129D
:1005660008D0EA75F00A84C454F0FFEA75F00A84EC
:10057600E5F02FFD7F821208D0EB75F00A84C45493
:10058600F0FFEB75F00A84E5F02FFD7F841208D0AA
:070596007D807F8E0208D07A
:1005E9007F8112062AAC077F8312062AAB077F8513
:1005F90012062AEFC4540F75F00AA4FEEF540F2E09
:10060900F522EBC4540F75F00AA4FFEB540F2FF534
:1006190023ECC4540F75F00AA4FFEC540F2FF521F5
:0106290022AE
:10077F00000102040810204080C0F9A4B0999282B1
:0E078F00F880907FBFFFFEFDFBF7EFDFBF7F1E
:0C08AD00011D00011AFF011B99011C999C
:0A09410000007F217E42DEFEDFFC95
:01094B002289
:1007F400ED7005EF521A8004EFF4421AE5A0541F7D
:0A0804004480F5A0851A8053A01F60
:01080E0022C7
:10087600851D80E5A0541F44A0F5A0EF24FF9286B5
:0708860053A01F85801D2215
:10088D00851D80E5A0541F44A0F5A0EF24FF9284A0
:07089D0053A01F85801D22FE
:10080F0020B0037F142220B1037F132220B2037F75
:0B081F00122220B3037F11227F9922D8
:1008E40012080F8F1CE51C651B6006851C1BAF1BC3
:0308F400227F99C7
:0108F70022DE
:08070A00EC75F00A84FD7F0785
:10071200E5A0541F44C0F5A0EF90077F93F580E554
:10072200A0541F44E0F5A0ED90078893F58053A0F4
:040732001F02094158
:1006A300E52275F00A84FD7F01120712E52275F039
:1006B3000A84ADF07F021207127D0B7F031207122B
:1006C300E52375F00A84FD7F04120712E52375F014
:0906D3000A84ADF07F0502071254
:1008F800AC0712070AEC75F00A84ADF07F0802070E
:0109080012DC
:1007BB00AC077D0B7F011207127F02120712120783
:0D07CB000AEC75F00A84ADF07F08020712F9
:08094C007F367EC7DEFEDFFCF2
:010954002280
:04092900D2A07F05D4
:08092D0000AE071FEE70F92275
:0F091A00D2A1120929C2A17F0512092DC2A02264
:0C093500C2A1120929D2A17F0502092DE0
:07079D00120736AD07D20080
:1007A400C2A0A20092A17F0512092D120929C2A09C
:0707B400D2A17F0502092D0F
:0808440012091A7FA012066ED2
:10084C00120929A2A19200C2A07F0512092DA200B3
:01085C002279
:07066700AB0712091A7F9096
:02066E00AD07D6
:10067000E4FCECC39408748094805024C2A07F05ED
:1006800012092DED30E704D2A18002C2A17F05122C
:10069000092DD2A0ED25E0FD7F0512092D0C80D299
:0206A000C2A0F6
:0106A2002235
:10073600E4FCECC39408748094805017120929EDE8
:1007460025E0FD30A103430501C2A07F0512092D56
:050756000C80DFAF057F
:01075B00227B
:10082A00AB05AA07120844AF0212066E12084CAFB3
:0A083A000312066E12084C02093585
:02075C00AB07E9
:10075E00E4FD120844AF0312066E12084C12091A79
:10076E007FA112066E12084C12079D120935AF05B5
:01077E002258
:1006DC008F108B118A128913AF141514EF601EAF93
:1006EC00100510AB110513E513AA127002051214B4
:0E06FC00F91202E1FD12082A12094C80DB22DD
:10059D008F158B168A178918120844AF1512066E1F
:1005AD0012084C12091A7FA112066E12084CAF19CF
:1005BD001519EF6024120736AB160518E518AA17A2
:1005CD007002051714F9EF1202FAE5196004C20062
:0C05DD008002D2001207A480D50209356C
:10085D0012066712084C7F4012066E12084CAF0349
:09086D0012066E12084C02093556
:1009090012066712084CAF0312066E12084C020950
:0109190035A8
:1008BA00E4FD12091A7F9112066E12084C12079D66
:0508CA00120935AF0525
:0108CF002206
:10031A00750899E4F509F50DF50CF50BF50A750E56
:10032A0032750F0190079593FFE4FD1207F4E4FF7D
:10033A00120876E4FF12088D7B087D1EE4FF120581
:10034A00467F031209091205E91208BAAC07E4123A
:10035A00022CE4FBFA797F784312010CE4FBFA7968
:10036A00C678421200038F0D8E0C8D0B8C0A120870
:10037A00E48F08E50914606E1470030204782402FD
:10038A0070C41206A3AF0DAE0CAD0BAC0A1202601C
:10039A001208F8AC0EE412022CAB0DAA0CA90BA899
:1003AA000A1201A950047F018002E4FF12088DE5B8
:1003BA00086414702375090190079593FF7D011253
:1003CA0007F4900796E493FFE4FD1207F4E4FF12A2
:1003DA00088D750F01020350E508641360030203D8
:1003EA005075090280591206A3AF0DAE0CAD0BACC5
:1003FA000A1202601208F8E50F601CAC0EE4120241
:10040A002CAB0DAA0CA90BA80A1201A950047F0152
:10041A008002E4FF120876AF087E00EF6413700FC3
:10042A00E50F70047D0180027D008D0F020350EFFD
:10043A0064124E70047F018007E50864117007FF9B
:10044A0012088D020350E50864146003020350F594
:10045A0009FF120876900795E493FFE4FD1207F46A
:10046A00900796E493FF7D011207F4020350AF0E42
:10047A001207BBAF087E00EF6412700EE50E6463CC
:10048A007003020350050E020350EF64114E700C04
:10049A00E50E7003020350150E020350E5086413BB
:1004AA006003020350F509AD0EFF12082A02035039
:10000300EC4D6011E8497017ED33EC3304600DE4F7
:10001300FCFFFEFD22E933E8330470F80202CC1240
:10002300029758046009E4CC248150062850090241
:1000330002D62840030202D3C0E0EB4A7044B980E1
:1000430006D0E0FB0202C2EF4E701CBD8008EBFF3E
:10005300EAFEE9FD80EBE98DF0A4FEE5F00200EC99
:10006300E9CDF9EAFEEBFFEF89F0A4FCE5F0CE89D8
:10007300F0A42EFFE435F0CD89F0A42DFEE435F095
:100083008067EF4E7005BD80D780C3EF8BF0A4ACC3
:10009300F0EE8BF0A42CFCE435F0F8EF8AF0A42CFE
:1000A300E5F038FCE433CB8DF0A42CFCE5F03BF811
:1000B300EE8AF0A42CFCE5F038F8E433CF89F0A401
:1000C3002CFCE5F038CF3400CE89F0A42FFFE5F007
:1000D3003EFEE433C98DF0A42EFEE5F039CD8AF05F
:1000E300A42FFFE5F03EFEE43DFD33D0E0FB5007D7
:1000F3000BBB000F0202D6EC2CFCEF33FFEE33FEFA
:06010300ED33FD0202AE27
:100109000202D6EC5D046005E8590470030202CCD2
:10011900120297580460F6EC4860F2EC7004FDFE98
:10012900FF22C860DB2481C85009C39860025006C9
:100139000202D39850CAF582E9294B4A7005AB826D
:100149000202C275F0007C1A7880C3EF9BEE9AED2B
:1001590099400DC3EF9BFFEE9AFEED99FDE842F041
:10016900DC23ACF0D0E0FFD0E0FED0E0FDAB822094
:10017900E7101BEB60BAEC2CFCEF33FFEE33FEED1E
:1001890033FD0202AEE803F830E705C0F075F00070
:10019900EF2FFFEE33FEED33FD40B830E7C280AA02
:1001A90074F8CC6480CCC86480C8F58204604FC3FD
:1001B900EB9FF5F0EA9E42F0E99D42F0E89C45F09C
:1001C900603C501DE5825FFFE582D313CB5BCBF426
:1001D9002B5582FB50280ABA002409B9002008804F
:1001E9001DE5825BFBE582D313CF5FCFF4C3132FE9
:1001F9005582FF50090EBE00050DBD00010CC3EB71
:100209009FF5F0EA9E42F0E99D42F0E89C45F060D6
:0902190007CC4820E701B3EC22F8
:1002220075F020800E75F010800575F0087D007E57
:10023200007F003392D530D50312030CEC3340100B
:10024200EF33FFEE33FEED33FDEC33FCD5F0ED2260
:0E025200E5F0247EA2D513CC92E7CDCEFF229C
:10026000EDD2E7CD33EC3392D524814006E4FFFE96
:10027000FDFC22FCE4CFCECDCC24E0501174FF80F5
:10028000EDC3CC13CCCD13CDCE13CECF13CF047092
:07029000F030D5DE02030C83
:10029700E9D2E7C933E833F892D5EDD2E7CD33ECAD
:0702A70033FC5002B2D52226
:1002AE00EC30E7100FBF000C0EBE00080DBD0004B1
:1002BE000BEB6014A2D5EB13FCED92E7FD2274FF5D
:1002CE00FCFDFEFF22E480F8A2D574FF13FC7D80B6
:0302DE00E480EFCA
:1004C60002031AE493A3F8E493A34003F68001F22F
:1004D60008DFF48029E493A3F85407240CC8C33337
:1004E600C4540F4420C8834004F456800146F6DF06
:1004F600E4800B01020408102040809008A4E47EEA
:10050600019360BCA3FF543F30E509541FFEE493FA
:10051600A360010ECF54C025E060A840B8E493A3C1
:10052600FAE493A3F8E493A3C8C582C8CAC583CAEC
:10053600F0A3C8C582C8CAC583CADFE9DEE780BEA4
:0108B900003E
:1002E100BB010689828A83E0225002E722BBFE021B
:0902F100E32289828A83E493224E
:1002FA00BB010689828A83F0225002F722BBFE01E3
:02030A00F322DC
:0E030C00C3E49FFFE49EFEE49DFDE49CFC2202
:00000001FF
