:0300000002046E89
:10000B00020565EC4D6011E8497017ED33EC3304D4
:10001B00600DE4FCFFFEFD22E933E8330470F802C7
:10002B00023712020258046009E4CC2481500628DE
:10003B00500902024128400302023EC0E0EB4A7025
:10004B0044B98006D0E0FB02022DEF4E701CBD8040
:10005B0008EBFFEAFEE9FD80EBE98DF0A4FEE5F08D
:10006B000200F7E9CDF9EAFEEBFFEF89F0A4FCE51E
:10007B00F0CE89F0A42EFFE435F0CD89F0A42DFE4F
:10008B00E435F08067EF4E7005BD80D780C3EF8BF2
:10009B00F0A4ACF0EE8BF0A42CFCE435F0F8EF8A76
:1000AB00F0A42CE5F038FCE433CB8DF0A42CFCE56C
:1000BB00F03BF8EE8AF0A42CFCE5F038F8E433CFF3
:1000CB0089F0A42CFCE5F038CF3400CE89F0A42FB6
:1000DB00FFE5F03EFEE433C98DF0A42EFEE5F039CA
:1000EB00CD8AF0A42FFFE5F03EFEE43DFD33D0E0DA
:1000FB00FB50070BBB000F020241EC2CFCEF33FF54
:10010B00EE33FEED33FD02021974F8CC6480CCC8DB
:10011B006480C8F58204604FC3EB9FF5F0EA9E4202
:10012B00F0E99D42F0E89C45F0603C501DE5825F94
:10013B00FFE582D313CB5BCBF42B5582FB50280A04
:10014B00BA002409B9002008801DE5825BFBE5821B
:10015B00D313CF5FCFF4C3132F5582FF50090EBEBD
:10016B0000050DBD00010CC3EB9FF5F0EA9E42F0BC
:10017B00E99D42F0E89C45F06007CC4820E701B3CD
:10018B00EC2275F020800E75F010800575F0087D5F
:10019B00007E007F003392D530D5031202A1EC33E1
:1001AB004010EF33FFEE33FEED33FDEC33FCD5F0B7
:1001BB00ED22E5F0247EA2D513CC92E7CDCEFF2223
:1001CB00EDD2E7CD33EC3392D524814006E4FFFE2C
:1001DB00FDFC22FCE4CFCECDCC24E0501174FF808B
:1001EB00EDC3CC13CCCD13CDCE13CECF13CF047028
:1001FB00F030D5DE0202A1E9D2E7C933E833F89239
:10020B00D5EDD2E7CD33EC33FC5002B2D522EC3036
:10021B00E7100FBF000C0EBE00080DBD00040BEB6A
:10022B006014A2D5EB13FCED92E7FD2274FFFCFDED
:10023B00FEFF22E480F8A2D574FF13FC7D80E480DE
:10024B00EFBC000BBE0029EF8DF084FFADF022E474
:10025B00CCF875F008EF2FFFEE33FEEC33FCEE9D80
:10026B00EC984005FCEE9DFE0FD5F0E9E4CEFD22A7
:10027B00EDF8F5F0EE8420D21CFEADF075F008EF32
:10028B002FFFED33FD4007985006D5F0F222C398AF
:10029B00FD0FD5F0EA22C3E49FFFE49EFEE49DFD33
:1002AB00E49CFC22E4F508750901750A17750B012E
:1002BB00F50FF50EF50DF50CFF120899E4FF12087A
:1002CB00B07B377D3B7F171205C290090BE493FF80
:1002DB00E50B7D0070027D0112087E1208EFD2AF94
:1002EB00C2A91208DB8F0812066F1208098F0F8E36
:1002FB000E8D0D8C0CE5086432701BE50B7F0070C6
:10030B00027F018F0B90090BE493FFE50B7D0070CF
:10031B00027D0112087EE51A7023E5187009900919
:10032B000A93FFE4FD8013C3E51894057480948051
:10033B00400B90090AE493FF7D0112087EE50B60E8
:10034B001A147045AC0AE4120197AB0FAA0EA90D53
:10035B00A80C1201146020401E8008E51A702AE5D3
:10036B001870097F011208B0D2A9801DC3E518943B
:10037B0005748094804012E4FF1208B0C2A9900962
:10038B000CE493FF7D0112087EE50924FE60311415
:10039B00700302042F240260030202EDE4FFFE7DD2
:1003AB00207C41AB0FAA0EA90DA80C12000E120453
:1003BB00FAE508643160030202ED7509020202EDF1
:1003CB00E508643170067509030202ED120619EF98
:1003DB006442704A7D0B7F0112079E7D027F0212E1
:1003EB00079EE51A75F00A84FD7F0412079EE51A35
:1003FB0075F00A84ADF07F0512079E7D0C7F061207
:10040B00079EE51875F00A84FD7F0712079EE51815
:10041B0075F00A84ADF07F0812079E0202ED1206FA
:10042B00B00202EDAF0A1207E9AF087E00EF6431AC
:10043B0070067509010202EDEF64414E700EE50A7C
:10044B00646370030202ED050A0202EDE5086442E3
:10045B0060030202EDE50A640A70030202ED150A5D
:10046B000202ED787FE4F6D8FD7581200204B50217
:10047B0002AFE493A3F8E493A34003F68001F208E0
:10048B00DFF48029E493A3F85407240CC8C333C4C6
:10049B00540F4420C8834004F456800146F6DFE431
:1004AB00800B0102040810204080900862E47E015A
:1004BB009360BCA3FF543F30E509541FFEE493A3A4
:1004CB0060010ECF54C025E060A840B8E493A3FAB6
:1004DB00E493A3F8E493A3C8C582C8CAC583CAF042
:1004EB00A3C8C582C8CAC583CADFE9DEE780BE8F51
:1004FB00138E128D118C107D0B7F0112079E7D01C7
:10050B007F0212079EAF13AE12AD11AC101201CBCE
:10051B007C007D6412024CAD077F0612079EAF1361
:10052B00AE12AD11AC101201CB7C007D0A12024C45
:10053B007C007D0A12024C7F0712079E7D0A7F0703
:10054B0012079EAF13AE12AD11AC101201CB7C0093
:10055B007D0A12024C7F0802079EC0E0C0F0C083E8
:10056B00C082C0D075D000C000C001C002C003C0A3
:10057B0004C005C006C007051CC3E51C94027480AB
:10058B0094804018751C00E51B7F0070027F018F63
:10059B001B90090CE493FFAD1B12087ED007D0060D
:1005AB00D005D004D003D002D001D000D0D0D0825F
:1005BB00D083D0F0D0E032AC07AA05E4FD7F8E12D9
:1005CB0008C7EB75F00A84C454F0FFEB75F00A848E
:1005DB00E5F02FFD7F801208C7EA75F00A84C4543A
:1005EB00F0FFEA75F00A84E5F02FFD7F821208C751
:1005FB00EC75F00A84C454F0FFEC75F00A84E5F056
:10060B002FFD7F841208C77D807F8E0208C753B0F1
:10061B00F0D2B4D2B5D2C2D2C420B4047D048018B7
:10062B0020B5047D03801120C2047D02800A20C402
:10063B00047D0180037F002243B00FC2B4C2B5C258
:10064B00C2C2C420B0047E04801320B1047E038098
:10065B000C20B2047E02800520B3027E01EDC4544F
:10066B00F02EFF227F811206F0AC077F831206F07B
:10067B00AB077F851206F0EFC4540F75F00AA4FE8A
:10068B00EF540F2EF519EBC4540F75F00AA4FFEBC2
:10069B00540F2FF51AECC4540F75F00AA4FFEC5449
:1006AB000F2FF518227D0B7F0112079E7D027F0213
:1006BB0012079EE51975F00A84FD7F0412079EE56B
:1006CB001975F00A84ADF07F0512079E7D0C7F062D
:1006DB0012079EE51A120797E51A75F00A84ADF01A
:1006EB007F0802079EE4FDC29300C29700D29300DD
:1006FB00120846E4FFEFC39408748094805011C233
:10070B0097EDC313FD30A303430580D2970F80E50C
:10071B00C29300C29700D29700C2A300D2A300AF2E
:10072B0005227FCC1207C27F441207C27FC87E000E
:10073B0012082CC200D2947F0C7E0012082CC2949B
:10074B007F507E0012082CD2947F0A7E0012082C58
:10075B00A2949200120828A200227FCC1207C27F1B
:10076B00BE1207C2120774A907E4FBEBC39408740B
:10077B008094805014C294ECC313FCD29430940335
:10078B004304801208280B80E2AF042275F00A8420
:10079B00FD7F07E5A0541F44C0F5A0EF900912930D
:1007AB00F580E5A0541F44E0F5A0ED90091B93F5EF
:1007BB008053A01F020900A907E4FBEBC394087444
:1007CB008094805012C294E9139294120828D29408
:1007DB00E9C313F90B80E47F057E0002082CAC07FC
:1007EB007D0B7F0112079E7D037F0212079EEC1289
:1007FB000797EC75F00A84ADF07F0802079E12078D
:10080B003E12072D120765EFFEE9FFE4AD07AC06BC
:10081B00120192E4FBFA7980783D02000E7F057E8F
:10082B0000EF1FAA0670011E4A600FE4FDEDC39492
:10083B000C7480948050EA0D80F322E4FEEEC39496
:10084B000874809480500FC297EF1392A3EFC313D9
:10085B00FFD2970E80E722011900011A0001180040
:10086B000117000114FF011500011600011C000106
:10087B001B0100ED7005EF52148004EFF44214E5F8
:10088B00A0541F4480F5A085148053A01F22851708
:10089B0080E5A0541F44A0F5A0EF24FF928653A03F
:1008AB001F85801722851780E5A0541F44A0F5A053
:1008BB00EF24FF928453A01F85801722C29300C29E
:1008CB009700D29300120846AF05120846C2932236
:1008DB001206198F16E51565166006851615AF15E8
:1008EB00227F0022538E7F5389F0758AB0758C3C22
:1008FB00C28DD28C227F067ED3DEFEDFFC22FFFE72
:10090B00FDFBF7EFDFBF7F000102040810204080E2
:0D091B00C0F9A4B0999282F880907FC1BF0E
:00000001FF
