:0800000002065F04040404047D
:10000B00020819EC4D6011E8497017ED33EC33041D
:10001B00600DE4FCFFFEFD22E933E8330470F802C7
:10002B0002A012026B58046009E4CC24815006280C
:10003B0050090202AA2840030202A7C0E0EB4A7053
:10004B0044B98006D0E0FB020296EF4E701CBD80D7
:10005B0008EBFFEAFEE9FD80EBE98DF0A4FEE5F08D
:10006B000200F7E9CDF9EAFEEBFFEF89F0A4FCE51E
:10007B00F0CE89F0A42EFFE435F0CD89F0A42DFE4F
:10008B00E435F08067EF4E7005BD80D780C3EF8BF2
:10009B00F0A4ACF0EE8BF0A42CFCE435F0F8EF8A76
:1000AB00F0A42CE5F038FCE433CB8DF0A42CFCE56C
:1000BB00F03BF8EE8AF0A42CFCE5F038F8E433CFF3
:1000CB0089F0A42CFCE5F038CF3400CE89F0A42FB6
:1000DB00FFE5F03EFEE433C98DF0A42EFEE5F039CA
:1000EB00CD8AF0A42FFFE5F03EFEE43DFD33D0E0DA
:1000FB00FB50070BBB000F0202AAEC2CFCEF33FFEB
:10010B00EE33FEED33FD0202820202AAEC5D0460C7
:10011B0005E8590470030202A012026B580460F642
:10012B00EC4860F2EC7004FDFEFF22C860DB24811A
:10013B00C85009C398600250060202A79850CAF52E
:10014B0082E9294B4A7005AB8202029675F0007C5E
:10015B001A7880C3EF9BEE9AED99400DC3EF9BFF8E
:10016B00EE9AFEED99FDE842F0DC23ACF0D0E0FF17
:10017B00D0E0FED0E0FDAB8220E7101BEB60BAECC9
:10018B002CFCEF33FFEE33FEED33FD020282E8036E
:10019B00F830E705C0F075F000EF2FFFEE33FEED02
:1001AB0033FD40B830E7C280AA74F8CC6480CCC869
:1001BB006480C8F58204604FC3EB9FF5F0EA9E4262
:1001CB00F0E99D42F0E89C45F0603C501DE5825FF4
:1001DB00FFE582D313CB5BCBF42B5582FB50280A64
:1001EB00BA002409B9002008801DE5825BFBE5827B
:1001FB00D313CF5FCFF4C3132F5582FF50090EBE1D
:10020B0000050DBD00010CC3EB9FF5F0EA9E42F01B
:10021B00E99D42F0E89C45F06007CC4820E701B32C
:10022B00EC2275F020800E75F010800575F0087DBE
:10023B00007E007F003392D530D5031203BDEC3323
:10024B004010EF33FFEE33FEED33FDEC33FCD5F016
:10025B00ED22E5F0247EA2D513CC92E7CDCEFF2282
:10026B00E9D2E7C933E833F892D5EDD2E7CD33ECD9
:10027B0033FC5002B2D522EC30E7100FBF000C0E4E
:10028B00BE00080DBD00040BEB6014A2D5EB13FCF4
:10029B00ED92E7FD2274FFFCFDFEFF22E480F8A245
:1002AB00D574FF13FC7D80E480EFE709F608DFFAD5
:1002BB008046E709F208DFFA803E88828C83E709E3
:1002CB00F0A3DFFA8032E309F608DFFA8078E3095E
:1002DB00F208DFFA807088828C83E309F0A3DFFADF
:1002EB00806489828A83E0A3F608DFFA80588982CA
:1002FB008A83E0A3F208DFFA804C80D280FA80C6B2
:10030B0080D4806980F28033801080A680EA809A46
:10031B0080A880DA80E280CA803389828A83ECFAF3
:10032B00E493A3C8C582C8CCC583CCF0A3C8C5824F
:10033B00C8CCC583CCDFE9DEE7800D89828A83E4F4
:10034B0093A3F608DFF9ECFAA9F0EDFB2289828A78
:10035B0083ECFAE0A3C8C582C8CCC583CCF0A3C894
:10036B00C582C8CCC583CCDFEADEE880DB89828A14
:10037B0083E493A3F208DFF980CC88F0EF60010EE1
:10038B004E60C388F0ED2402B4040050B9F582EB43
:10039B002402B4040050AF2323458223900305733A
:1003AB00BB010689828A83F0225002F722BBFE0131
:1003BB00F322C3E49FFFE49EFEE49DFDE49CFC223C
:1003CB00750801E4F509750A01780B7C00FD7BFFCC
:1003DB007A007903FE7F05120385751001751101F3
:1003EB00E4F515F514F513F512751601FF1208F265
:1003FB00E4FF1208BF7F031208671208D2D2AFC204
:10040B00A9E4FF1207BBEF646460257D64E4FF126F
:10041B0007FC7D047F011207FC7D047F021207FCA1
:10042B007D047F031207FC7D047F041207FC801CF4
:10043B007F011207BB8F0C7F021207BB8F0D7F034F
:10044B001207BB8F0E7F041207BB8F0F1208AB8FE7
:10045B0009120895AC07E4120237E4FBFA79A0788D
:10046B004012000EE4FBFA797F78431201178F15C7
:10047B008E148D138C12E4FFFE7DA07C3FAB15AA6E
:10048B0014A913A8121201B450057516018063AF9D
:10049B0015AE14AD13AC12E4FBFA79A0783F120140
:1004AB00B460025019E4FFFE7D207C40AB15AA140A
:1004BB00A913A8121201B450057516028034AF159A
:1004CB00AE14AD13AC12E4FBFA792078401201B4F0
:1004DB006002501BE4FFFE7D707C40AB15AA14A993
:1004EB0013A8121201B46002500575160380037530
:1004FB001604E50824FE70030205A9147003020517
:10050B00F424026003020457E5096413700E7508A6
:10051B0002750A01C2A9FF1208BF8079120834EFD5
:10052B0064117007AF1612087F8023E509641470FD
:10053B001DE50A7F0070027F018F0AEF64016007DF
:10054B001208D2D2A98007C2A9E4FF1208BFE50A9C
:10055B006003020457740B2510F8E6FFE51AC39FDE
:10056B005003020457E4F51AAF111208BF0511AF7F
:10057B00117E00EF6409600AEF64106005EF6414EC
:10058B0070050510020457D3EF9416EE6480948027
:10059B005003020457751001751101020457740BB7
:1005AB002510F8E6FDAF101206EBAF097E00EF64E5
:1005BB00137006750803020457EF64124E7013C3D1
:1005CB00E5109404748094804003020457051002D4
:1005DB000457E50964116003020457E510640170C8
:1005EB00030204571510020457740B2510F8E6FD8F
:1005FB00AF101206EBE5096413701B7508017D0142
:10060B00FF120797740B2510F8E6FDAF101207FCCD
:10061B00751001020457AF097E00EF641270167457
:10062B000B2510F8E6640C7003020457740B2510AD
:10063B00F806020457EF64114E6003020457740B63
:10064B002510F8E664047003020457740B2510F8A8
:10065B0016020457787FE4F6D8FD7581200206A6B2
:10066B000203CBE493A3F8E493A34003F68001F2D7
:10067B0008DFF48029E493A3F85407240CC8C33390
:10068B00C4540F4420C8834004F456800146F6DF5F
:10069B00E4800B0102040810204080900900E47EE6
:1006AB00019360BCA3FF543F30E509541FFEE49354
:1006BB00A360010ECF54C025E060A840B8E493A31B
:1006CB00FAE493A3F8E493A3C8C582C8CAC583CA46
:1006DB00F0A3C8C582C8CAC583CADFE9DEE780BEFE
:1006EB00AC05AB077D0A7F01120797AD037F0212A2
:1006FB0007977D0A7F03120797ECC3940A748094C3
:10070B0080500BE4FD7F05120797AD048012EC754A
:10071B00F00A84FD7F05120797EC75F00A84ADF0A3
:10072B007F06120797E4FD7F071207977F080207E2
:10073B0097AD07E4FCECC39408748094805024C2FA
:10074B00A07F0512091DED30E704D2A18002C2A1E2
:10075B007F0512091DD2A0ED25E0FD7F0512091DB5
:10076B000C80D2C2A022E4FCECC394087480948069
:10077B005017120919ED25E0FD30A103430501C205
:10078B00A07F0512091D0C80DFAF0522E5A0541FC9
:10079B0044C0F5A0EF90095193F580E5A0541F4498
:1007AB00E0F5A0ED90095A93F58053A01F02090DB7
:1007BB00AB07E4FD12084EAF0312073C12085612AA
:1007CB0008E37FA112073C1208561207DE12092517
:1007DB00AF0522120771AD07D200C2A0A20092A1F1
:1007EB007F0512091D120919C2A0D2A17F050209AA
:1007FB001DAB05AA0712084EAF0212073C12085692
:10080B00AF0312073C120856120925020931C0E04A
:10081B00C0D00519C3E51994027480948040057506
:10082B001900051AD0D0D0E03220B0037F1422205B
:10083B00B1037F132220B2037F12227F0020B30269
:10084B007F11221208E37FA012073C120919A2A103
:10085B009200C2A07F0512091DA20022AB0712084D
:10086B00E37F9012073C120856AF0312073C1208A5
:10087B0056020925AC077D0A7F07120797AD047F47
:10088B0008120797E4FDFF020797E4FD1208E37FC8
:10089B009112073C1208561207DE120925AF0522EA
:1008AB001208348F18E51865176006851817AF17EF
:1008BB00227F0022E5A0541F4480F5A0EF90093A57
:1008CB0093F58053A01F22538E7F5389F0E4F58A52
:1008DB00758C4CC28DD28C22D2A1120919C2A17F68
:1008EB000512091DC2A022E5A0541F44A0F5A08F3C
:1008FB008053A01F22011700011800011900011AD3
:10090B0000000000007F0B7EBEDEFEDFFC22D2A0CB
:10091B007F0500AE071FEE70F922C2A1120919D292
:10092B00A17F0502091D7F367EC7DEFEDFFC22FF9D
:10093B00FEFDFBF7EFDFBF7FBFDFEFF7FBFDFE7EBB
:10094B00BDDBE7DBBD7E000102040810204080C048
:0A095B00F9A4B0999282F88090BFD1
:00000001FF
