:03000000020003F8
:0C000300787FE4F6D8FD75812002004AE9
:04012100D2A07F05E4
:0801250000AE071FEE70F92285
:0F011200D2A1120121C2A17F05120125C2A02294
:0C012D00C2A1120121D2A17F0502012510
:1000EA00C2A0A20092A17F05120125120121C2A07D
:0700FA00D2A17F05020125E0
:10010100120121A2A19201C2A07F05120125A20123
:0101110022CB
:02008F00AD07BB
:10009100E4FCECC39408748094805024C2A07F05D2
:1000A100120125ED30E704D2A18002C2A17F051221
:1000B1000125D2A0ED25E0FD7F051201250C80D29E
:0200C100C2A0DB
:0100C300221A
:1000C400E4FCECC39408748094805017120121ED71
:1000D40025E0FD30A103430501C2A07F05120125DF
:0500E4000C80DFAF05F8
:0100E90022F4
:10000F00020000E493A3F8E493A34003F68001F207
:10001F0008DFF48029E493A3F85407240CC8C333F2
:10002F00C4540F4420C8834004F456800146F6DFC1
:10003F00E4800B0102040810204080900139E47E17
:10004F00019360BCA3FF543F30E509541FFEE493B6
:10005F00A360010ECF54C025E060A840B8E493A37D
:10006F00FAE493A3F8E493A3C8C582C8CAC583CAA8
:10007F00F0A3C8C582C8CAC583CADFE9DEE780BE60
:0101390000C5
:00000001FF
