:100000000204B8EC4D6011E8497017ED33EC33048D
:10001000600DE4FCFFFEFD22E933E8330470F802D2
:1000200002CC12029758046009E4CC2481500628BF
:1000300050090202D62840030202D3C0E0EB4A7006
:1000400044B98006D0E0FB0202C2EF4E701CBD80B6
:1000500008EBFFEAFEE9FD80EBE98DF0A4FEE5F098
:100060000200ECE9CDF9EAFEEBFFEF89F0A4FCE534
:10007000F0CE89F0A42EFFE435F0CD89F0A42DFE5A
:10008000E435F08067EF4E7005BD80D780C3EF8BFD
:10009000F0A4ACF0EE8BF0A42CFCE435F0F8EF8A81
:1000A000F0A42CE5F038FCE433CB8DF0A42CFCE577
:1000B000F03BF8EE8AF0A42CFCE5F038F8E433CFFE
:1000C00089F0A42CFCE5F038CF3400CE89F0A42FC1
:1000D000FFE5F03EFEE433C98DF0A42EFEE5F039D5
:1000E000CD8AF0A42FFFE5F03EFEE43DFD33D0E0E5
:1000F000FB50070BBB000F0202D6EC2CFCEF33FFCA
:10010000EE33FEED33FD0202AE0202D6EC5D04607A
:1001100005E8590470030202CC120297580460F6F5
:10012000EC4860F2EC7004FDFEFF22C860DB248125
:10013000C85009C398600250060202D39850CAF50D
:1001400082E9294B4A7005AB820202C275F0007C3D
:100150001A7880C3EF9BEE9AED99400DC3EF9BFF99
:10016000EE9AFEED99FDE842F0DC23ACF0D0E0FF22
:10017000D0E0FED0E0FDAB8220E7101BEB60BAECD4
:100180002CFCEF33FFEE33FEED33FD0202AEE8034D
:10019000F830E705C0F075F000EF2FFFEE33FEED0D
:1001A00033FD40B830E7C280AA74F8CC6480CCC874
:1001B0006480C8F58204604FC3EB9FF5F0EA9E426D
:1001C000F0E99D42F0E89C45F0603C501DE5825FFF
:1001D000FFE582D313CB5BCBF42B5582FB50280A6F
:1001E000BA002409B9002008801DE5825BFBE58286
:1001F000D313CF5FCFF4C3132F5582FF50090EBE28
:1002000000050DBD00010CC3EB9FF5F0EA9E42F026
:10021000E99D42F0E89C45F06007CC4820E701B337
:10022000EC2275F020800E75F010800575F0087DC9
:10023000007E007F003392D530D50312030CEC33DF
:100240004010EF33FFEE33FEED33FDEC33FCD5F021
:10025000ED22E5F0247EA2D513CC92E7CDCEFF228D
:10026000EDD2E7CD33EC3392D524814006E4FFFE96
:10027000FDFC22FCE4CFCECDCC24E0501174FF80F5
:10028000EDC3CC13CCCD13CDCE13CECF13CF047092
:10029000F030D5DE02030CE9D2E7C933E833F89237
:1002A000D5EDD2E7CD33EC33FC5002B2D522EC30A1
:1002B000E7100FBF000C0EBE00080DBD00040BEBD5
:1002C0006014A2D5EB13FCED92E7FD2274FFFCFD58
:1002D000FEFF22E480F8A2D574FF13FC7D80E48049
:1002E000EFBB010689828A83E0225002E722BBFE2F
:1002F00002E32289828A83E49322BB010689828AEF
:1003000083F0225002F722BBFE01F322C3E49FFFD9
:10031000E49EFEE49DFDE49CFC22750899E4F50949
:10032000F50DF50CF50BF50A750E32750F019008F9
:100330008B93FFE4FD120737E4FF12079FE4FF12DF
:1003400007B67B087D1EE4FF1205447F03120832C6
:1003500012059B1207E3AC07E412022CE4FBFA79C6
:100360007F784312010CE4FBFA79C678421200034D
:100370008F0D8E0C8D0B8C0A12080D8F08E5091459
:10038000606E147003020476240270C4120655AF26
:100390000DAE0CAD0BAC0A120260120821AC0EE4DB
:1003A00012022CAB0DAA0CA90BA80A1201A9500429
:1003B0007F018002E4FF1207B6E50864147023751C
:1003C000090190088B93FF7D0112073790088CE498
:1003D00093FFE4FD120737E4FF1207B6750F010221
:1003E0000350E50864136003020350750902805747
:1003F000120655AF0DAE0CAD0BAC0A12026012081E
:1004000021E50F601CAC0EE412022CAB0DAA0CA966
:100410000BA80A1201A950047F018002E4FF120711
:100420009FAF087E00EF6413700DE50F7D00700232
:100430007D018D0F020350EF64124E70047F018026
:1004400007E50864117007FF1207B6020350E508BC
:1004500064146003020350F509FF12079F90088B94
:10046000E493FFE4FD12073790088CE493FF7D01CD
:10047000120737020350AF0E1206FEAF087E00EFE0
:100480006412700EE50E64637003020350050E02E1
:100490000350EF64114E700CE50E7003020350150B
:1004A0000E020350E50864136003020350F509AD22
:1004B0000EFF12076C020350787FE4F6D8FD7581B9
:1004C000200204FF02031AE493A3F8E493A3400379
:1004D000F68001F208DFF48029E493A3F85407249E
:1004E0000CC8C333C4540F4420C8834004F456805E
:1004F0000146F6DFE4800B010204081020408090E2
:1005000007CDE47E019360BCA3FF543F30E509545E
:100510001FFEE493A360010ECF54C025E060A84005
:10052000B8E493A3FAE493A3F8E493A3C8C582C8FC
:10053000CAC583CAF0A3C8C582C8CAC583CADFE9D1
:10054000DEE780BEAC07AA05E4FD7F8E1207F9EC5A
:1005500075F00A84C454F0FFEC75F00A84E5F02FBE
:10056000FD7F801207F9EA75F00A84C454F0FFEAAF
:1005700075F00A84E5F02FFD7F821207F9EB75F024
:100580000A84C454F0FFEB75F00A84E5F02FFD7F78
:10059000841207F97D807F8E0207F97F811205DCC6
:1005A000AC077F831205DCAB077F851205DCEFC447
:1005B000540F75F00AA4FEEF540F2EF515EBC4543A
:1005C0000F75F00AA4FFEB540F2FF516ECC4540F6F
:1005D00075F00AA4FFEC540F2FF51422E4FDC2932A
:1005E00000C29700D2930012071BE4FFEFC39408E8
:1005F000748094805011C297EDC313FD30A3034360
:100600000580D2970F80E5C29300C29700D2970071
:10061000C2A300D2A300AF0522AB071208437F900C
:10062000AD07E4FCECC39408748094805024C2A00D
:100630007F05120856ED30E704D2A18002C2A17FE7
:1006400005120856D2A0ED25E0FD7F051208560CD4
:1006500080D2C2A022E51575F00A84FD7F01120642
:1006600096E51575F00A84ADF07F021206967D0BB3
:100670007F03120696E51675F00A84FD7F041206C4
:1006800096E51675F00A84ADF07F05020696EC75C6
:10069000F00A84FD7F07E5A0541F44C0F5A0EF9049
:1006A000087593F580E5A0541F44E0F5A0ED90088F
:1006B0007E93F58053A01F02086AE4FCECC3940803
:1006C000748094805017120852ED25E0FD30A1038C
:1006D000430501C2A07F051208560C80DFAF05223A
:1006E0001206BAAD07D200C2A0A20092A17F0512E5
:1006F0000856120852C2A0D2A17F05020856AC07C4
:100700007D0B7F011206967F0212069612068EEC72
:1007100075F00A84ADF07F08020696E4FEEEC394FD
:100720000874809480500FC297EF1392A3EFC31305
:10073000FFD2970E80E722ED7005EF52108004EF94
:10074000F44210E5A0541F4480F5A085108053A00A
:100750001F2220B0037F142220B1037F132220B276
:10076000037F12227F9920B3027F1122AB05AA07D3
:10077000120786AF0212062012078EAF0312062060
:1007800012078E02085E1208437FA012062012088C
:1007900052A2A19200C2A07F05120856A200228593
:1007A0001380E5A0541F44A0F5A0EF24FF928653C8
:1007B000A01F85801322851380E5A0541F44A0F557
:1007C000A0EF24FF928453A01F85801322011500FF
:1007D0000116000114000113000110FF011199011D
:1007E000129900E4FD1208437F9112062012078E31
:1007F0001206E012085EAF0522C29300C29700D233
:10080000930012071BAF0512071BC2932212075257
:100810008F12E51265116006851211AF11227F99C2
:1008200022AC0712068EEC75F00A84ADF07F080248
:10083000069612061912078EAF0312062012078EB3
:1008400002085ED2A1120852C2A17F05120856C248
:10085000A022D2A07F0500AE071FEE70F922C2A130
:10086000120852D2A17F0502085600007F217E4265
:10087000DEFEDFFC22000102040810204080C0F9E7
:10088000A4B0999282F880907FBFFFFEFDFBF7EF46
:03089000DFBF7F48
:00000001FF
