:03000000020003F8
:0C000300787FE4F6D8FD75812002004AE9
:10013D00E4FEEEC3940874809480500FC297EF13C1
:0B014D0092A3EFC313FFD2970E80E7D0
:010158002284
:10015900C29300C29700D2930012013DAF0512016C
:040169003DC29322DE
:10008F00E4FDC29300C29700D2930012013DE4FF3A
:10009F00EFC39408748094805011C297EDC313FD81
:1000AF0030A303430580D2970F80E5C29300C29718
:0C00BF0000D29700C2A300D2A300AF053E
:0100CB002212
:04016D007F057E008C
:0B017100EF1FAC0670011E4C70F62260
:0200CC00AD077E
:1000CE00E4FBEBC39408748094805012C294ED1339
:1000DE00929412016DD294EDC313FD0B80E47F0553
:0500EE007E000201711B
:10011A00E4FBEBC39408748094805014C294EDC33A
:10012A0013FDD29430940343058012016D0B80E2D3
:02013A00AF050F
:01013C0022A0
:1000F300C200D2947F0C7E00120171C2947F507EA5
:1001030000120171D2947F0A7E00120171A29492AF
:060113000012016DA200C4
:0101190022C3
:10000F00020000E493A3F8E493A34003F68001F207
:10001F0008DFF48029E493A3F85407240CC8C333F2
:10002F00C4540F4420C8834004F456800146F6DFC1
:10003F00E4800B010204081020408090017CE47ED4
:10004F00019360BCA3FF543F30E509541FFEE493B6
:10005F00A360010ECF54C025E060A840B8E493A37D
:10006F00FAE493A3F8E493A3C8C582C8CAC583CAA8
:10007F00F0A3C8C582C8CAC583CADFE9DEE780BE60
:01017C000082
:00000001FF
