:0300000002009566
:0C009500787FE4F6D8FD7581200200B9E8
:0400A100D2A07F0565
:0800A50000AE071FEE70F92206
:0F008600D2A11200A1C2A17F051200A5C2A02223
:0C00AD00C2A11200A1D2A17F050200A593
:10005E00C2A0A20092A17F051200A51200A1C2A00B
:07006E00D2A17F050200A5ED
:100075001200A1A2A19201C2A07F051200A5A201B2
:010085002258
:02000300AD0747
:10000500E4FCECC39408748094805024C2A07F055E
:100015001200A5ED30E704D2A18002C2A17F05122E
:1000250000A5D2A0ED25E0FD7F051200A50C80D22C
:02003500C2A067
:0100370022A6
:10003800E4FCECC394087480948050171200A1ED7E
:1000480025E0FD30A103430501C2A07F051200A5EC
:050058000C80DFAF0584
:01005D002280
:0100B9002224
:00000001FF
